:100000000C942A000C9447000C9447000C94470071
:100010000C9447000C9447000C9447000C94470044
:100020000C9447000C9447000C9447000C94470034
:100030000C9447000C9447000C9447000C94470024
:100040000C9447000C9447000C9447000C94470014
:100050000C94470011241FBECFE5D8E0DEBFCDBF12
:1000600010E0A0E6B0E0E6E2F5E002C005900D92F7
:10007000A236B107D9F710E0A2E6B0E001C01D92A8
:10008000A436B107E1F70E9451020C9491020C943E
:100090000000CF93DF9300D0CDB7DEB79A8389837A
:1000A00089819A81892B49F089819A8101979A8364
:1000B000898389819A81892BB9F70F900F90DF91FD
:1000C000CF910895CF93DF9300D0CDB7DEB795B32E
:1000D000917095BB25B3982F907F922B95BBAB9ACF
:1000E000AB9895B3917095BB25B330E1839FC00168
:1000F0001124282B25BBAB9AAB9880E197E29A8319
:10010000898389819A81892B49F089819A81019714
:100110009A83898389819A81892BB9F70F900F90EF
:10012000DF91CF910895CF93DF9300D000D0CDB76A
:10013000DEB780E197E29C838B838B819C81892B46
:1001400049F08B819C8101979C838B838B819C815F
:10015000892BB9F784B38E6F84BB8CE20E94620056
:1001600086E00E9462008CE00E94620081E00E94B2
:1001700062001092630080E197E29A83898389810B
:100180009A81892B49F089819A8101979A83898381
:1001900089819A81892BB9F784B38E6F84BB8CE2F5
:1001A0000E94620086E00E9462008CE00E94620071
:1001B00081E00E946200109263000F900F900F90F8
:1001C0000F90DF91CF91089581E00C946200CF935E
:1001D000DF9300D0CDB7DEB795B3917095BB95B3E3
:1001E0009260282F207F922B95BBAB9AAB9895B34A
:1001F000917095BB25B3226030E18302C0011124C8
:10020000282B25BBAB9AAB9888EE93E09A83898321
:1002100089819A81892B49F089819A8101979A83F2
:10022000898389819A81892BB9F7809163008F5FD7
:1002300080936300883029F00F900F90DF91CF9169
:10024000089588EA0E9462000F900F90DF91CF918D
:100250000895CF93DF93EC018881882331F02196B4
:100260000E94E70089918111FBCFDF91CF91089522
:10027000CF93DF93C82F843640F48A30A0F480E314
:100280008C0FDF91CF910C94E700D9E28D9FD12D97
:100290001124D295DF7080E38D0F0E94E70084E681
:1002A000D89FC0191124DDECCD9FD12D1124D695F6
:1002B000D695D69580E38D0F0E94E7008AE0D89FFF
:1002C000C019112480E38C0FDF91CF910C94E700CB
:1002D0001F93CF93DF93CDB7DEB728970FB6F8946F
:1002E000DEBF0FBECDBFAC010097E9F180E001C0D9
:1002F000812F11E0180FE1E0F0E0EC0FFD1FE80F97
:10030000F11D9A01ADECBCEC0E94600296958795B8
:1003100096958795969587959C01220F331FBC0172
:10032000660F771F660F771F660F771F260F371F21
:10033000421B530B405D4083AC010097C9F611236B
:1003400041F0FE01E10FF11D80810E94E700115094
:10035000C1F728960FB6F894DEBF0FBECDBFDF9170
:10036000CF911F91089580E328960FB6F894DEBFD1
:100370000FBECDBFDF91CF911F910C94E700BF92CC
:10038000CF92DF92EF92FF920F931F93CF93DF9361
:10039000CDB7DEB728970FB6F894DEBF0FBECDBF3E
:1003A0006115710581059105C9F120E0BAE0CB2EF8
:1003B000D12CE12CF12C01C02B2DBB24B394B20E17
:1003C00001E010E00C0F1D1F020F111DA701960187
:1003D0000E946F02605DF8016083B901CA01611576
:1003E00071058105910541F7BB2041F0FE01EB0D40
:1003F000F11D80810E94E700BA94C1F728960FB6DC
:10040000F894DEBF0FBECDBFDF91CF911F910F914A
:10041000FF90EF90DF90CF90BF90089580E32896F3
:100420000FB6F894DEBF0FBECDBFDF91CF911F9105
:100430000F91FF90EF90DF90CF90BF900C94E7006A
:1004400080E886B980E487B981E0809362000895EE
:1004500016B810926200089597B19F7397B997B13B
:10046000982B97B9089590916200911107C090E878
:1004700096B990E497B991E090936200883070F457
:1004800090916000982B97B987EC86B9349BFECF8A
:10049000329A84B125B190E0922B089580E090E0EB
:1004A00008950E94930080E886B980E487B981E0CE
:1004B0008093620080E00E9433020E9468010895E8
:1004C000A29FB001B39FC001A39F700D811D112495
:1004D000911DB29F700D811D1124911D0895A1E2FF
:1004E0001A2EAA1BBB1BFD010DC0AA1FBB1FEE1FAE
:1004F000FF1FA217B307E407F50720F0A21BB30BF9
:10050000E40BF50B661F771F881F991F1A9469F774
:1005100060957095809590959B01AC01BD01CF01D0
:060520000895F894FFCFDE
:02052600400093
:00000001FF
