:100000000C942A000C9434000C9434000C943400AA
:100010000C9434000C9434000C9434000C94340090
:100020000C9434000C9434000C9434000C94340080
:100030000C9434000C9434000C9434000C94340070
:100040000C9434000C9434000C9434000C94340060
:100050000C94340011241FBECFE5D8E0DEBFCDBF25
:100060000E946C000C949E000C940000CF93DF93D0
:1000700000D0CDB7DEB764E370E0019768F07A8313
:10008000698329813A81A901415051095A834983E1
:10009000232BB9F7019798F70F900F90DF91CF912D
:1000A0000895CF93DF9300D0CDB7DEB764E172E05F
:1000B000019768F07A83698329813A81A9014150C7
:1000C00051095A834983232BB9F7019798F70F9069
:1000D0000F90DF91CF910895CF93DF9300D000D0A0
:1000E000CDB7DEB78FEF87BBEFEF64E172E0E8BB1F
:1000F00048E853E17C836B838B819C819C01215078
:1001000031093C832B83892BB9F7415051094115A3
:10011000510581F718BA48E55BE17A8369838981E3
:100120009A819C01215031093A832983892BB9F79F
:10013000415051094115510581F7D9CFF894FFCFAE
:00000001FF
