:100000000C942A000C9434000C9434000C943400AA
:100010000C9434000C9434000C9434000C94340090
:100020000C9434000C9434000C9434000C94340080
:100030000C9434000C9434000C9434000C94340070
:100040000C9434000C9434000C9434000C94340060
:100050000C94340011241FBECFE5D8E0DEBFCDBF25
:100060000E9436000C9456000C94000088E18AB976
:1000700010BC8CE089B986E880BD5F9BFECF8CB157
:10008000813069F08230C9F75F9BFECFECB1F0E0C0
:100090005F9BFECF8CB190E091838083EECF5F9B1E
:1000A000FECFECB1F0E080818CB9E7CFF894FFCFC0
:00000001FF
